:02000000062CCC
:06000600000000000800EC
:0E000C00213083120313FD00FD0B0A280800AB
:10001A000F3083120313FC004730FD00FD0B132839
:0A002A00FC0B132800000000080082
:1000340083160313B71B21288312861123288312E6
:1000440086158316371B2928831206112B28831241
:1000540006158316B71A31288312861033288312A3
:1000640086148316371A3928831206103B28831204
:10007400061467183F280616402806128616032021
:1000840086128316B7194928831286114B288312C6
:1000940086158316371951288312061153288312A3
:1000A40006158316B7185928831286105B28831205
:1000B4008614831637186128831206106328831266
:1000C4000614671867280616682806128616032081
:0E00D4008612671C6F280D2070280620080079
:1000E20083120313671083163608B7001A206714A9
:0200F200080004
:1000F4008C28803083160313B1009F28C030B100D0
:100104009F289430B1009F28D430B1009F288030BC
:10011400B1009F28831603133108013A03197B2881
:100124003108023A031980283108033A0319832855
:100134003108043A0319862889283203F00031086B
:10014400F0077008B1008312671470088316B700B3
:100154001A20671083163308B7001A2067140800A2
:10016400831203137008F100F0010830FC007108D9
:10017400F40C0318C128FC0BBA28F1010034031055
:10018400C628F40C0318F107F10CF00CFC0BC3287F
:02019400080061
:1001960083120313F8010830FC00700DF80D740883
:1001A600F8020318D828F8070310F00DFC0BD02826
:0201B60008003F
:0E01B8008312031349088A00480882000800D9
:1001C600F528803083160313B1000829C030B1002A
:1001D60008299430B1000829D430B10008298030AC
:1001E600B1000829831603133108013A0319E428DC
:1001F6003108023A0319E9283108033A0319EC28B1
:100206003108043A0319EF28F2283203F0003108C6
:10021600F0077008B1007008B7001A20671083163F
:10022600B40134083307840000080319232934086D
:10023600330784000008B60071208316B40A142917
:060246008312671408009A
:10024C00063083120313FD00FD0B2A290000080061
:10025C0083160313B101B301B4011030B50004309F
:10026C00340203186329F030831288008030F000C8
:10027C007008083E840083163509F0007008800071
:10028C00032003200F3083120805F000700883163A
:10029C00B200700803195D293308B1003208031944
:1002AC005B29B20CB213B10A54290430B400B50D59
:1002BC0035100430B307B40A35293108F0000800B2
:1002CC00710DF80DF90D7408F8027508031C750F03
:1002DC00F902F00DF10D0F30FC00710DF80DF90D58
:1002EC007408701C7F29F8027508031C750FF9023D
:1002FC008429F80775080318750FF907F00DF10D2F
:10030C00FC0B7329701890297408F80775080318EA
:08031C00750FF907000008004D
:10032400831203137408003A031DA1297508003AC7
:10033400031DA129FF30F0007F30F100FA29831258
:100344000313FD01F901F801710870040319003465
:1003540071087506FA00FA1BFD09FB01F51FB729A0
:10036400F409F509F40A0319F50AF11FBE29F00985
:10037400F109F00A0319F10A71087504FA00FA1B6D
:10038400D32966217B18E629FD1F0034F009F10901
:10039400F00A0319F10AF809F909F80A0319F90A24
:1003A4000034F51FE229F11BDE297108F9007008F9
:1003B400F800F101F001C629F101F001F00A00345E
:1003C400F109F009FB0AC329F80A0319F90A7408A8
:1003D4007802031DC62975087902031DC629F9018F
:1003E400F801F00A0319F10AF11FC6290000FF34CD
:0203F4000800FF
:1003F6002E2170088312EE000F300805F000031955
:0C040600062A2621FF296E08F0000800DD
:10041200413083160313A3006C30A4006130A500A1
:100422007230A6006D30A7002030A8002030A9004D
:100432002030AA002030AB002030AC003A30AD00B2
:100442002030AE002030AF00B001313083122107DE
:100452008316A90083122108F000F00D7010F00D30
:10046200701070084A3EEF006F0AEE006E088400BA
:100472000008F0000A30F400CB20303070078316F9
:10048200AB0083126E0884000008F0000A30F4000A
:10049200CB207808F000303070078316AC0083124E
:1004A2006F0884000008F0000A30F400CB203030DE
:1004B20070078316AE0083126F0884000008F000F4
:1004C2000A30F400CB207808F00030307007831631
:1004D200AF000230B1000130B200A330B300E3201C
:1004E2002108F000F00D7010F00D70104A30F00786
:1004F2000230700784000008F100840A0008F2004C
:1005020000307206031D872A01307106031D922AEC
:1005120003308316B1000130B2002330B300E32070
:100522009A2A03308316B1000130B2003C30B30086
:04053200E3200800BA
:10053600803083120313F0007008083E8400FF30F9
:040546008000080029
:10054A0083160313861206120610861006118611E8
:10055A0083128612061286110611861006100D20C5
:10056A000D200D20861406148616032086120D20EF
:10057A008616032086120D208616032086120D2069
:10058A0006108616032086120D2086160320861270
:10059A00861086158616032086120D2086110614EB
:1005AA0086160320861206108616032086120D2050
:1005BA0086160320861206148616032086120D203C
:1005CA00061086160320861286150615861406144A
:0C05DA008616032086120D20671408000E
:1005E600FF3083160313A000FF30A1000030A200E5
:1005F6000030FF308312E400FF30E5000030E600F3
:100606000030FF30E100FF30E2000030E300003050
:10061600FF30DE00FF30DF00FF30E000FF30FF304C
:10062600EB00FF30EC00FF30ED00FF30FF30E8005C
:10063600FF30E9000030EA000030831614139413EB
:0C06460007168715383083129400080056
:10065200DC208A110A128000840AC80A0319C90A16
:08066200F003031D292B080021
:10066A008312031320080319052CEA2B8030F000AB
:10067A0080306F067002031D442B6E08023C03187B
:10068A00482BEE01EF012108F000F00D7010F00D7B
:10069A0070104A30F007700A84006E088000023039
:1006AA008316B1000930B200303083126E07831608
:1006BA00B3007A20FA2B2108F000F00D7010F00D2B
:1006CA0070104A30F007700A84000008023A031DCD
:1006DA007B2B8030F00080306F067002031D772B71
:1006EA006E08033C03187B2BEE01EF012108F00092
:1006FA00F00D7010F00D70104A30F007700A831672
:10070A00A300230884000008F0000A30F400B22095
:10071A006E08F007831623088400700880000230F0
:10072A00B1000A30B200303083126E078316B3006C
:10073A007A2014308316B7001A20FA2B8030F00082
:10074A0080306F067002031DAC2B6E08053C03183F
:10075A00B02BEE01EF012108F000F00D7010F00D42
:10076A00701070084A3E84006E08800002308316BA
:10077A00B1000C30B200303083126E078316B3001A
:10078A007A20FA2B2108F000F00D7010F00D70108D
:10079A0070084A3E8316A300230884000008F0006C
:1007AA000A30F400B2206E08F0078316230884008A
:1007BA00700880000230B1000D30B2003030831270
:1007CA006E078316B3007A20FA2B2208003A03191F
:1007DA003B2B2208013A0319602B2208023A03191B
:1007EA00A32B2208033A0319C72BA20A2208043AA8
:1007FA00031D052CA201A0010C308316B7001A2094
:02080A000800E4
:10080C00482583120313BB01143083169300F32283
:10081C00A5229B2201308316B7001A200C308316B8
:10082C00B7001A2001308316B1000130B2002C3011
:10083C00B300E3200922BB01FB217008BB00700848
:10084C000319222CDC2C0730EE000030EF0035238E
:10085C00182D0430EE000030EF003523182D013038
:10086C00EE000030EF003523182D0830EE0000307C
:10087C00EF003523182D0530EE000030EF00352346
:10088C00182D0230EE000030EF003523182DEE014C
:10089C00EF013523182D0930EE000030EF00352321
:1008AC00182D0630EE000030EF003523182D0330E4
:1008BC00EE000030EF003523182D2008031D9E2C70
:1008CC002108F000F00D7010F00D70104A30F00798
:1008DC000230700784000008F100840A0008F2005E
:1008EC0000307206031D7C2C01307106031D8D2C0B
:1008FC002108F000F00D7010F00D70104A30F00768
:10090C000230700784008001840A80019D2C21082C
:10091C00F000F00D7010F00D70104A30F00702303E
:10092C0070078400013080000030840A80000922A6
:10093C00182D20080319A92CA001A2010C30831634
:10094C00B7001A20B72C0130A0000F308316B70067
:10095C001A2002308316B1000830B2004630B300C2
:10096C00E320182DC501182D2008031DC52CA1034B
:10097C002108FF3A031DC42C0430A1000922182DB4
:10098C002008031DDB2C2108013EF000F1010318A7
:10099C00F10A0530F4000030F50092217808F000DF
:1009AC007908F1007008A1000922182D3B08013AC2
:1009BC000319292C3B08023A03192F2C3B08033A44
:1009CC000319352C3B08053A03193B2C3B08063A16
:1009DC000319412C3B08073A0319472C3B08083AEA
:1009EC0003194D2C3B08093A0319512C3B080A3AC0
:1009FC000319572C3B080B3A03195D2C3B08043A9E
:100A0C000319632C3B080D3A03199F2C3B080E3A33
:100A1C000319B82C3B080F3A0319BA2C3B08103AAF
:080A2C000319C62C212C192D21
:100A900020308400283083120313F0001F30C80078
:080AA0000530C90029230800FC
:020A3E00003482
:020A4000003480
:020A420000347E
:100A44002034413463347434693476346534203466
:020A540000346C
:100A5600543469346D3465343A34203420342034C7
:0E0A66003A34203420343A3420342034003422
:020A740000344C
:100A760049346E346134633474346934763465349D
:020A860000343A
:020A8800003438
:040A8A0020340034E0
:02400E007A3BFB
:00000001FF
