:02000000DC2AF8
:100006000F3083120313FC004730FD00FD0B092857
:0A001600FC0B0928000000000800A0
:1000200083120313FB01FA01F9018030F800F10C8F
:10003000F00C031C24287408F90775080318750FC1
:10004000FA070318FB0A0310F01F2C287408FA079C
:1000500075080318750FFB07FB0CFA0CF90CF80C6C
:10006000031C17287B08F3007A08F2007908F100D6
:060070007808F000080012
:1000760083120313F801F9011030FC00710DF80D1D
:10008600F90D7408F8027508031C750FF9020318B8
:1000960053287408F80775080318750FF907031035
:0A00A600F00DF10DFC0B41280800DD
:0600B00000000000080042
:0E00B600213083120313FD00FD0B5F280800AC
:0E00C4008312031340088A003F0882000800E0
:1000D200803083120313F0007008083E8400FF3062
:0400E2008000080092
:1000E60083120313CE1B792886117A2886154E1B98
:1000F6007E2806117F280615CE1A832886108428A6
:1001060086144E1A882806108928061443188D2846
:1001160006168E280612861658208612CE1995289F
:100126008611962886154E199A2806119B280615BB
:10013600CE189F288610A02886144E18A4280610CC
:10014600A52806144318A9280616AA2806128616F4
:1001560058208612431CB1280320B2285B200800D1
:1001660083160313861206120610861006118611D0
:1001760083128612061286110611861006100320B7
:1001860003200320861406148616582086120320A0
:1001960086165820861203208616582086120320BB
:1001A60006108616582086120320861658208612B8
:1001B6008610861586165820861203208611061488
:1001C6008616582086120610861658208612032098
:1001D6008616582086120614861658208612032084
:1001E60006108616582086128615061586140614DD
:0C01F600861658208612032043140800CF
:10020200831203134608F0004708F100F10CF00CCA
:10021200F113F10CF00CF113F10CF00CF113F10CE1
:10022200F00CF1130A30F4000030F50010200F300A
:100232004605F2004708F3000030F3057208700724
:10024200D80071080318013E7307D9005808C60088
:100252005908C7004408F0004508F100F10CF00C01
:10026200F113F10CF00CF113F10CF00CF113F10C91
:10027200F00CF1130A30F4000030F50010200F30BA
:100282004405F2004508F3000030F30572087007D8
:10029200D60071080318013E7307D7005608C40040
:1002A2005708C5004808F0004908F100F10CF00CAD
:1002B200F113F10CF00CF113F10CF00CF113F10C41
:1002C200F00CF1130A30F4000030F50010200F306A
:1002D2004805F2004908F3000030F3057208700780
:1002E200D40071080318013E7307D5005408C800F2
:1002F2005508C9004C08F0004D08F100F10CF00C53
:10030200F113F10CF00CF113F10CF00CF113F10CF0
:10031200F00CF1130A30F4000030F50010200F3019
:100322004C05F2004D08F3000030F3057208700727
:10033200D20071080318013E7307D3005208CC00A3
:100342005308CD004A08F0004B08F100F10CF00C04
:10035200F113F10CF00CF113F10CF00CF113F10CA0
:10036200F00CF1130A30F4000030F50010200F30C9
:100372004A05F2004B08F3000030F30572087007DB
:10038200D00071080318013E7307D1005008CA005B
:100392005108CB004108F0004208F100F10CF00CCA
:1003A200F113F10CF00CF113F10CF00CF113F10C50
:1003B200F00CF1130A30F4000030F50010200F3079
:1003C2004105F2004208F3000030F305720870079D
:1003D200CE0071080318013E7307CF004E08C1001A
:1003E2004F08C2000A30F4000030F5005808F0004F
:1003F2005908F1003B207808F0007908F10030300C
:100402007007AC000A30F4000030F5005808F00024
:100412005908F1003B2030307007AB000A30F4007D
:100422000030F5005608F0005708F1003B2078082C
:10043200F0007908F10030307007A9000A30F400AA
:100442000030F5005608F0005708F1003B2030302C
:100452007007A8000A30F4000030F5005408F000DC
:100462005508F1003B207808F0007908F10030309F
:100472007007A6000A30F4000030F5005408F000BE
:100482005508F1003B2030307007A5000A30F40017
:100492000030F5004E08F0004F08F1003B207808CC
:1004A200F0007908F10030307007BC000A30F40027
:1004B2000030F5004E08F0004F08F1003B203030CC
:1004C2007007BB000A30F4000030F5005008F0005D
:1004D2005108F1003B207808F0007908F100303033
:1004E2007007B7000A30F4000030F5005008F00041
:1004F2005108F1003B2030307007B6000A30F4009A
:100502000030F5005208F0005308F1003B20780853
:10051200F0007908F10030307007B4000A30F400BE
:100522000030F5005208F0005308F1003B20303053
:060532007007B300080091
:1005380062208A110A128000840ABF0A0319C00ABD
:08054800F003031D9C2A0800CA
:1005500083120313CE01D001D1011030D200043038
:1005600051020318D92AF03088008030F00070085A
:10057000083E84005209F00070088000582058207E
:100580000F300805F0007008CF0070080319D32A57
:100590005008CE004F080319D12ACF0CCF13CE0A32
:1005A000CA2A0430D100D20D52100430D007D10A2B
:0805B000AF2A4E08F00008001C
:1005B800543083120313A0004930A1004D30A2002B
:1005C8004530A3003A30A4002030A5002030A60012
:1005D8003A30A7002030A8002030A9003A30AA00FD
:1005E8002030AB002030AC00AD014430AE004130CB
:1005F800AF005430B0004530B1003A30B20020307E
:10060800B3002030B4002F30B5002030B6002030C1
:10061800B7002F30B8003230B9003030BA0020307F
:10062800BB002030BC00BD01BE01BE016920B32063
:100638000130CE0073200C30CE00732001213E081B
:10064800031D2A2BA8227008BE00232B232B2B2B3B
:02400E007A3BFB
:00000001FF
