:040000008A15002835
:0E000600213083120313FD00FD0B07280800B4
:100014000F3083120313FC004730FD00FD0B102842
:0A002400FC0B10280000000008008B
:06002E00000000000800C4
:1000340083160313C51B21288312861123288312D8
:1000440086158316451B2928831206112B28831233
:1000540006158316C51A3128831286103328831295
:1000640086148316451A3928831206103B288312F6
:1000740006146F183F280616402806128616172005
:1000840086128316C5194928831286114B288312B8
:100094008615831645195128831206115328831295
:1000A40006158316C5185928831286105B288312F7
:1000B4008614831645186128831206106328831258
:1000C40006146F1867280616682806128616172065
:0E00D40086126F1C6F280A2070280320080077
:1000E200831203136F1083164408C5001A206F147D
:0200F200080004
:1000F4008C28803083160313C0009F28C030C000B2
:100104009F289430C0009F28D430C0009F2880309E
:10011400C0009F28831603134008013A03197B2863
:100124004008023A031980284008033A0319832837
:100134004008043A0319862889284103F00040083E
:10014400F0077008C0007008C5001A206F108316ED
:10015400C30143084207840000080319BA2843086E
:10016400420784000008C40071208316C30AAB2828
:0601740083126F14080065
:10017A0083120313F8010830FC00700DF80D74089F
:10018A00F8020318CA28F8070310F00DFC0BC2285E
:02019A0008005B
:10019C0083120313FB01FA01F9018030F800F10C12
:1001AC00F00C031CE2287408F90775080318750F86
:1001BC00FA070318FB0A0310F01FEA287408FA0761
:1001CC0075080318750FFB07FB0CFA0CF90CF80CEF
:1001DC00031CD5287B08F3007A08F2007908F1009B
:0601EC007808F000080095
:1001F20083160313141907291F301105F100710822
:10020200003A031D07290130F0000829F001080017
:0E0212008312031365088A0064088200080046
:10022000F93083160313A6000030A7000030A800A1
:100230000030A7308312EC000230ED000030EE00F9
:1002400000309230E9000330EA000030EB0000306B
:100250006330E6000430E7002130E8000030D130A0
:100260008316A3000330A4002030A5000030F63030
:10027000A0000430A1000030A20000301413941339
:0C02800007168715383083129400080020
:10028C0083160313861206120610861006118611A9
:10029C0083128612061286110611861006100A2089
:1002AC000A200A20861406148616172086120A20A5
:1002BC008616172086120A208616172086120A2008
:1002CC0006108616172086120A208616172086120C
:1002DC00861086158616172086120A20861106149B
:1002EC0086161720861206108616172086120A20EC
:1002FC0086161720861206148616172086120A20D8
:10030C0006108616172086128615061586140614F6
:0C031C008616172086120A206F140800B5
:10032800803083120313F0007008083E8400FF3009
:040338008000080039
:10033C00413083160313B0006C30B1006130B20051
:10034C007230B3006D30B4002030B5002030B600F0
:10035C002030B7002030B8002030B9003A30BA0055
:10036C002030BB002030BC00BD013130831222078D
:10037C008316B60083122208F000F00D7010F00DF9
:10038C00701070084D3E8316BF003F0ABE003E0839
:10039C0084000008F0000A30F400BD2030307007F3
:1003AC008316B8003E0884000008F0000A30F40000
:1003BC00BD207808F000303070078316B9003F0874
:1003CC0084000008F0000A30F400BD2030307007C3
:1003DC008316BB003F0884000008F0000A30F400CC
:1003EC00BD207808F000303070078316BC00023056
:1003FC00C0000130C100B030C2007A202208F000E9
:10040C00F00D7010F00D70104D30F00702307007C9
:10041C0084000008F100840A0008F2000030720623
:10042C00031D1A2A01307106031D252A0330831679
:10043C00C0000130C1002D30C2007A202D2A0330BB
:10044C008316C0000130C1002430C2007A2008009D
:10045C00710DF80DF90D7408F8027508031C750F71
:10046C00F902F00DF10D0F30FC00710DF80DF90DC6
:10047C007408701C472AF8027508031C750FF902E2
:10048C004C2AF80775080318750FF907F00DF10DD4
:10049C00FC0B3B2A7018582A7408F80775080318C7
:0804AC00750FF90700000800BC
:0E04B4008312031365088A00640882000800A2
:1004C200063083120313FD00FD0B652A00000800AD
:1004D20083160313B001B201B3011030B40004302B
:1004E200330203189E2AF030831288008030F00015
:1004F2007008083E840083163409F00070088000FA
:10050200172017200F3083120805F0007008831699
:10051200B10070080319982A3208B0003108031993
:10052200962AB10CB113B00A8F2A0430B300B40D6D
:1005320034100430B207B30A702A3008F000080001
:0C05420083120313950117129712080092
:10054E008312031347088316B200831248088316DA
:10055E00B300831249088316B40083124A08831627
:10056E00B500B001B1013108123C031DC02A30089C
:10057E008E3C031CCB2AF92070080319C72ACB2AFC
:10058E00B00A0319B10ABA2A12303102031DD12A58
:10059E008F303002031CD62A7B30F000072B11144B
:1005AE008316111C062B83124708480449044A047B
:1005BE000319052B83163208330434043504031D46
:1005CE00FC2A2C08840005308000840A2A08831235
:1005DE00E40083162B088312E50009218A110A1202
:1005EE00013083120313F000072B01308316B20281
:1005FE00031CB302031CB402031CB502D72AF0017C
:02060E000800E2
:10061000831603131208013EF000F1010318F10ADA
:100620003008F400F501CE200630F2007008F40026
:100630007108F50072080319222BF50CF40CF51360
:10064000FF3E1B2B0430F1007408F0007108031901
:100650002D2BF00D7010FF3E272B30307005F3006E
:100660007408F0007508F100F10CF00CF113F10CB6
:10067000F00CF113700895000F309705730897047C
:02068000080070
:10068200831203137008F100F0010830FC007108B6
:10069200F40C0318502BFC0B492BF101003403100E
:1006A200552BF40C0318F107F10CF00CFC0B522B38
:0206B20008003E
:1006B4006C2B803083160313B0007F2BC030B00046
:1006C4007F2B9430B0007F2BD430B0007F2B803050
:1006D400B0007F2B831603133008013A03195B2BF8
:1006E4003008023A0319602B3008033A0319632BCC
:1006F4003008043A0319662B692B3103F0003008E3
:10070400F0077008B00083126F1470088316C500D8
:100714001A206F1083163208C5001A206F140800BF
:100724008312031347088316B00083124808831604
:10073400B100831249088316B20083124A08831653
:10074400B30091148316911CD02B831247084804DC
:1007540049044A040319CF2B8316300831043204A8
:100764003304031DC52B2C08840006308000840A42
:100774002A088312E40083162B088312E50009215A
:100784008A110A12D02B013083160313B002031C02
:0E079400B102031CB202031CB302A42B080026
:1007A200831203138C112008930047088316B000AC
:1007B200831248088316B100831249088316B200D7
:1007C20083124A088316B3008316141D142C831255
:1007D2004708480449044A040319132C83163008B5
:1007E200310432043304031D0A2C2C088400043023
:1007F2008000840A2A088312E40083162B088312DD
:10080200E50009218A110A12013083120313F00054
:100812005A2C01308316B002031CB102031CB2022F
:10082200031CB302E52B831247088316B000831220
:1008320048088316B100831249088316B200831256
:100842004A088316B30083128C19522C47084804B5
:1008520049044A040319512C831630083104320426
:100862003304031D482C2C08840004308000840AC1
:100872002A088312E40083162B088312E50009215B
:100882008A110A12013083120313F0005A2C01302C
:100892008316B002031CB102031CB202031CB30292
:1008A200242C8316111B572CF0015A2C11150230DF
:0408B200F00008004A
:1008B600831603130711831212150C3097040800D0
:1008C6008312031347088316B10083124808831660
:1008D600B200831249088316B30083124A088316AE
:1008E600B40083128C118316911583128C19A32CD4
:1008F6004708480449044A040319A22C8316310800
:10090600320433043404031D982C2C08840003306D
:100916008000840A2A088312E40083162B088312B7
:10092600E50009218A110A12A32C0130831603134C
:10093600B102031CB202031CB302031CB402782CDE
:100946000313831213088316B00083122108003A9A
:10095600031DB02C83169116B22C831691128312A6
:100966008C1183161116831247088316B100831261
:1009760048088316B200831249088316B30083120F
:100986004A088316B40083128C19F12C47084804D0
:1009960049044A040319F02C83163108320433043F
:1009A6003404031DE62C2C08840003308000840ADE
:1009B6002A088312E40083162B088312E500092116
:1009C6008A110A12F12C013083160313B102031C9B
:1009D600B202031CB302031CB402C62C8316031313
:0609E6003008F0000800DB
:0809EC00831603131115080026
:1009F400A722D03083120313A000D1238312031340
:100A0400A001D1239223D13083120313A000D12358
:100A1400013083120313A100632470088312E300DE
:100A24000130A100632470088312E200A101632451
:100A340070088312E100F62483126308F000F00CBE
:100A4400F013F00CF013F00CF013F00CF0130A3068
:100A5400F40041230F306305F10071087007E300CF
:100A64006208F000F00CF013F00CF013F00CF0132B
:100A7400F00CF0130A30F40041230F306205F1004A
:100A840071087007E2006108F000F00CF013F00C3C
:100A9400F013F00CF013F00CF0130A30F4004123BF
:100AA4000F306105F1007108F0077008E1000130B2
:100AB4008316B0000730B1000A30F400BD20303096
:100AC40070078316B2005A2301308316B000083031
:100AD400B1000A30F40083126108F000BD207808E8
:100AE400F000303070078316B2005A2301308316A9
:100AF400B0000A30B1000A30F40083126208F0003A
:100B0400BD20303070078316B2005A23013083169B
:100B1400B0000B30B1000A30F40083126208F00018
:100B2400BD207808F000303070078316B2005A23D5
:100B340001308316B0000D30B1000A30F400831286
:100B44006308F000BD20303070078316B2005A23CA
:100B540001308316B0000E30B1000A30F400831265
:100B64006308F000BD207808F00030307007831669
:060B7400B2005A23080044
:100B7A00831203137408003A031DCC2D7508003A3A
:100B8A00031DCC2DFF30F0007F30F100252E83129B
:100B9A000313FD01F901F801710870040319003407
:100BAA0071087506FA00FA1BFD09FB01F51FE22D13
:100BBA00F409F509F40A0319F50AF11FE92DF009F8
:100BCA00F109F00A0319F10A71087504FA00FA1B0F
:100BDA00FE2D2E227B18112EFD1F0034F009F1097B
:100BEA00F00A0319F10AF809F909F80A0319F90AC6
:100BFA000034F51F0D2EF11B092E7108F90070083B
:100C0A00F800F101F001F12DF101F001F00A0034D0
:100C1A00F109F009FB0AEE2DF80A0319F90A74081A
:100C2A007802031DF12D75087902031DF12DF901D2
:100C3A00F801F00A0319F10AF11FF12D0000FF343F
:020C4A000800A0
:100C4C0069227008AD000F3083120805F0000319FB
:0E0C5C00312E6122292E83162D08F00008008B
:100C6A00462E831203130714702E83128714702ED4
:100C7A0083128716702E83120717702E8312871716
:100C8A00702E0313003083162E06031D4E2E0030DD
:100C9A002D060319362E00302E06031D562E01305E
:100CAA002D0603193A2E00302E06031D5E2E023041
:100CBA002D0603193D2E00302E06031D662E033025
:100CCA002D060319402E00302E06031D6E2E043009
:0A0CDA002D060319432E5B240800C9
:100CE4005A228A110A128000840AE40A0319E50AC6
:080CF400F003031D722E08003D
:100CFC008316031307108710071187120713871326
:100D0C0083120710C601121492147C3083169200C1
:100D1C00A122E8308316B000082314308316930008
:100D2C0010214621942101308316C5001A200C3065
:100D3C008316C5001A2001308316C0000130C10093
:100D4C003730C2007A209E218316A9010530290272
:100D5C000318D52E2908F000F00D7010F00D70104E
:100D6C0070084D3E840080012908F000F00D7010D1
:100D7C00F00D70104D30F007700A840080012908C6
:100D8C00F000F00D7010F00D70104D30F0070230C7
:100D9C00700784008001840A8001A90AAC2E83129A
:0E0DAC0007108710871207138713071108001E
:0E0DBA00831603130715F03083129705080007
:100DC8008312031323080319B22F972F8030F000E2
:100DD800803083162E067002031DF42E2D08023C67
:100DE8000318F82EAD01AE0183122208F000F00DB1
:100DF8007010F00D70104D30F007700A84008316E3
:100E08002D0880000230B0000930B10030302D07C5
:100E1800B2005A23A72F2208F000F00D7010F00D31
:100E280070104D30F007700A84000008023A031D64
:100E38002B2F8030F000803083162E067002031DA1
:100E4800272F2D08033C03182B2FAD01AE01831269
:100E58002208F000F00D7010F00D70104D30F00702
:100E6800700A8316AF002F0884000008F0000A30CB
:100E7800F400412383162D08F0072F08840070081A
:100E880080000230B0000A30B10030302D07B200C7
:100E98005A2314308316C5001A20A72F8030F0007B
:100EA800803083162E067002031D5C2F2D08053C2A
:100EB8000318602FAD01AE0183122208F000F00D77
:100EC8007010F00D701070084D3E840083162D08C8
:100ED80080000230B0000C30B10030302D07B20075
:100EE8005A23A72F2208F000F00D7010F00D701093
:100EF80070084D3E8316AF002F0884000008F000EC
:100F08000A30F400412383162D08F0072F088400C7
:100F1800700880000230B0000D30B10030302D076D
:100F2800B2005A23A72F3608003A0319EA2E3608CA
:100F3800013A03190F2F3608023A0319522F3608BF
:100F4800033A0319762FB60A3608043A031DB22F5E
:0E0F5800B601A3010C308316C5001A20080054
:100FBC00223084002B3083120313F000B330E40092
:080FCC000730E5007226080061
:101000008A11DE278A158A117E268A158A11FA240A
:101010008A158316A90105302902031851282908C9
:10102000F000F00D7010F00D70104D30F007023030
:10103000700784000008F100840A0008F200003004
:101040007206031D252801307106031D4E2829084C
:10105000F000F00D7010F00D70104D30F007700AB8
:101060008400000883126106031D4E288316290898
:10107000F000F00D7010F00D701070084D3E8400FF
:101080000008F100710883126206031D4E288316C2
:101090002908AD00AE018A1135268A158316A90AE2
:1010A0000B288312C6018A1126268A15700883121E
:1010B000C600232907308316AD000030AE008A1128
:1010C000E4268A155F2904308316AD000030AE0097
:1010D0008A11E4268A155F2901308316AD0000309D
:1010E000AE008A11E4268A155F2908308316AD0008
:1010F0000030AE008A11E4268A155F290530831678
:10110000AD000030AE008A11E4268A155F29023056
:101110008316AD000030AE008A11E4268A155F29DF
:101120008316AD01AE018A11E4268A155F290930C4
:101130008316AD000030AE008A11E4268A155F29BF
:1011400006308316AD000030AE008A11E4268A1501
:101150005F2903308316AD000030AE008A11E4260B
:101160008A155F292308031DD2282208F000F00DFC
:101170007010F00D70104D30F00702307007F10064
:10118000710884000008840A00040130031D003047
:10119000F0007108840070088000840A80018A11C0
:1011A0009E218A155F2923080319DF28A301B601B0
:1011B0000C308316C5008A111A208A15F1280130D7
:1011C000A3000F308316C5008A111A208A15023039
:1011D0008316C0000830C1004B30C2008A117A204B
:1011E0008A155F29071087108712071387138A1142
:1011F000DD268A155F292308031D0829A20322087A
:10120000FF3A031D05290430A2008A119E218A1588
:101210005F292308031D22292208013EF000F10165
:101220000318F10A0530F4000030F5008A11BD25DD
:101230008A157808F0007908F1007008A2008A1178
:101240009E218A155F294608013A03195A28460843
:10125000023A031963284608033A03196C28460822
:10126000053A031975284608063A03197E284608E8
:10127000073A031987284608083A031990284608B0
:10128000093A0319972846080A3A0319A02846087C
:101290000B3A0319A9284608043A0319B22846084C
:1012A0000D3A0319D32846080E3A0319F2284608C6
:1012B0000F3A0319FB284608103A03190929062892
:0212C0006029A3
:020F6600003455
:020F6800003453
:100F6A0049346E34613463347434693476346534A4
:020F7A00003441
:100F7C002034413463347434693476346534203429
:020F8C0000342F
:020F8E0000342D
:100F9000543469346D3465343A3420342034203488
:0E0FA0003A34203420343A34203420340034E3
:020FAE0000340D
:080FB000003400340034003469
:040FB80020340034AD
:02400E007A3BFB
:00000001FF
