:040000008A15002835
:0E000600213083120313FD00FD0B07280800B4
:100014000F3083120313FC004730FD00FD0B102842
:0A002400FC0B10280000000008008B
:06002E00000000000800C4
:1000340083160313EC1B21288312861123288312B1
:10004400861583166C1B2928831206112B2883120C
:1000540006158316EC1A312883128610332883126E
:10006400861483166C1A3928831206103B288312CF
:10007400061483164918412883120616432883124E
:1000840006128616172086128316EC194C28831242
:1000940086114E288312861583166C1954288312F0
:1000A40006115628831206158316EC185C28831251
:1000B40086105E288312861483166C1864288312B3
:1000C4000610662883120614831649186C288312B6
:1000D40006166E28831206128616172086128316B9
:0C00E400491C76280A2077280320080019
:1000F0008316031349106B08EC001A208316491469
:020100000800F5
:100102009328803083160313E700A628C030E70047
:10011200A6289430E700A628D430E700A62880302D
:10012200E700A628831603136708013A03198228F9
:100132006708023A031987286708033A03198A28CD
:100142006708043A03198D2890286803F0006708AD
:10015200F0077008E7007008EC001A2083164910B7
:10016200EA016A086907840000080319C0286A08BE
:10017200690784000008EB007820EA0AB2284914D3
:02018200080073
:1001840083120313F8010830FC00700DF80D740895
:10019400F8020318CF28F8070310F00DFC0BC7284A
:0201A400080051
:1001A60083120313FB01FA01F9018030F800F10C08
:1001B600F00C031CE7287408F90775080318750F77
:1001C600FA070318FB0A0310F01FEF287408FA0752
:1001D60075080318750FFB07FB0CFA0CF90CF80CE5
:1001E600031CDA287B08F3007A08F2007908F1008C
:0601F6007808F00008008B
:1001FC008316031314190C291F301105F100710813
:10020C00003A031D0C290130F0000D29F001080003
:0E021C008316031339088A0038088200080090
:10022A00FE3083160313C3000030C4000030C5003B
:10023A000030AC30C0000230C1000030C2000030D3
:10024A008930BD000330BE000030BF0000303630B8
:10025A00C6000430C7002130C8000030BB30CD00D2
:10026A000330CE002030CF000030B430CA00043052
:10027A00CB000030CC0000301413941307168715F6
:08028A003830831294000800D3
:1002920083160313861206120610861006118611A3
:1002A20083128612061286110611861006100A2083
:1002B2000A200A20861406148616172086120A209F
:1002C2008616172086120A208616172086120A2002
:1002D20006108616172086120A2086161720861206
:1002E200861086158616172086120A208611061495
:1002F20086161720861206108616172086120A20E6
:1003020086161720861206148616172086120A20D1
:1003120006108616172086128615061586140614F0
:0E0322008616172086120A208316491408003A
:10033000803083120313F0007008083E8400FF3001
:040340008000080031
:10034400413083160313D7006C30D8006130D900D4
:100354007230DA006D30DB002030DC002030DD004C
:100364002030DE002030DF002030E0003A30E100B1
:100374002030E2002030E300E401313083122B0707
:100384008316DD0083122B08F000F00D7010F00DC1
:1003940070107008A43E8316E600660AE50065083E
:1003A40084000008F0000A30F400C22030307007E6
:1003B4008316DF00650884000008F0000A30F400AA
:1003C400C2207808F000303070078316E000660819
:1003D40084000008F0000A30F400C22030307007B6
:1003E4008316E200660884000008F0000A30F40076
:1003F400C2207808F000303070078316E300023022
:10040400E7000130E800D730E900812083122B088F
:10041400F000F00D7010F00D7010A430F0070230F1
:10042400700784000008F100840A0008F20000301C
:100434007206031D1F2A01307106031D2A2A033088
:100444008316E7000130E8002230E9008120322AD7
:1004540083160330E7000130E8002C30E9008120E6
:0204640008008E
:10046600710DF80DF90D7408F8027508031C750F67
:10047600F902F00DF10D0F30FC00710DF80DF90DBC
:100486007408701C4C2AF8027508031C750FF902D3
:10049600512AF80775080318750FF907F00DF10DC5
:1004A600FC0B402A70185D2A7408F80775080318B3
:0804B600750FF90700000800B2
:0E04BE008316031339088A00380882000800EC
:1004CC00063083120313FD00FD0B6A2A000008009E
:1004DC0083160313D701D901DA011030DB00043085
:1004EC005A020318A32AF030831288008030F000DF
:1004FC007008083E840083165B09F00070088000C9
:10050C00172017200F3083120805F000700883168F
:10051C00D800700803199D2A5908D70058080319E8
:10052C009B2AD80CD813D70A942A0430DA00DB0D96
:10053C005B100430D907DA0A752A5708F000080056
:0C054C0083120313950117129712080088
:10055800831603132008D9002108DA002208DB00DB
:100568002308DC00D701D8015808123C031DBE2A15
:1005780057088E3C031CC92AFE2070080319C52A97
:10058800C92AD70A0319D80AB82A12305802031DF3
:10059800CF2A8F305702031CD42A7B30F000FF2A61
:1005A8001114111CFE2A2008210422042304031913
:1005B800FD2A59085A045B045C04031DF42A5308F5
:1005C800840005308000840A5108B8005208B90038
:1005D8000E218A110A12013083120313F000FF2A38
:1005E80001308316D902031CDA02031CDB02031C48
:0805F800DC02D52AF001080025
:10060000831603131208013EF000F1010318F10AEA
:100610005708F400F501D3200630F2007008F4000A
:100620007108F500720803191A2BF50CF40CF51378
:10063000FF3E132B0430F1007408F0007108031919
:10064000252BF00D7010FF3E1F2B30307005F3008E
:100650007408F0007508F100F10CF00CF113F10CC6
:10066000F00CF113700895000F309705730897048C
:02067000080080
:10067200831203137008F100F0010830FC007108C6
:10068200F40C0318482BFC0B412BF101003403102E
:100692004D2BF40C0318F107F10CF00CFC0B4A2B58
:0206A20008004E
:1006A400642B803083160313D700772BC030D70018
:1006B400772B9430D700772BD430D700772B80302A
:1006C400D700772B831603135708013A0319532BCA
:1006D4005708023A0319582B5708033A03195B2B9E
:1006E4005708043A03195E2B612B5803F00057088E
:1006F400F0077008D70049147008EC001A2083161C
:0E07040049105908EC001A2083164914080009
:10071200831603132008D7002108D8002208D90025
:100722002308DA009114911CBA2B20082104220418
:1007320023040319B92B5708580459045A04031DFA
:10074200AF2B5308840006308000840A5108B80099
:100752005208B9000E218A110A12BA2B01308316EF
:100762000313D702031CD802031CD902031CDA02AA
:04077200942B0800BC
:10077600831203138C112008930083162008D700D8
:100786002108D8002208D9002308DA00141DF22B0C
:1007960020082104220423040319F12B57085804C6
:1007A60059045A04031DE82B5308840004308000C2
:1007B600840A5108B8005208B9000E218A110A129B
:1007C600013083120313F0002D2C01308316D7025B
:1007D600031CD802031CD902031CDA02C92B200809
:1007E600D7002108D8002208D9002308DA0083128E
:1007F6008C19252C831620082104220423040319AE
:10080600242C5708580459045A04031D1B2C53085A
:10081600840004308000840A5108B8005208B900E8
:100826000E218A110A12013083120313F0002D2CB7
:1008360001308316D702031CD802031CD902031CFD
:10084600DA02FA2B8316111B2A2CF0012D2C111516
:060856000230F000080072
:10085C00831603130711831212150C30970408002A
:10086C00831603132008D8002108D9002208DA00C7
:10087C002308DB0083128C118316911583128C19BB
:10088C006C2C8316200821042204230403196B2CDE
:10089C00580859045A045B04031D612C5308840046
:1008AC0003308000840A5108B8005208B9000E21A8
:1008BC008A110A126C2C013083160313D802031C04
:1008CC00D902031CDA02031CDB02442C031383122F
:1008DC0013088316D70083122108003A031D792CC4
:1008EC00831691167B2C8316911283128C1183160E
:1008FC0011162008D8002108D9002208DA00230894
:10090C00DB0083128C19AF2C8316200821042204DF
:10091C0023040319AE2C580859045A045B04031D14
:10092C00A42C5308840003308000840A5108B800BA
:10093C005208B9000E218A110A12AF2C013083160D
:10094C000313D802031CD902031CDA02031CDB02BA
:0C095C00872C831603135708F0000800D6
:080968008316031311150800AA
:10097000AC22D03083120313A000BB2383120313D5
:10098000A001BB238923D13083120313A000BB2312
:10099000013083120313A10036247008BC0001301B
:1009A0008312A10036247008BB008312A1013624F3
:1009B0007008BA00B4243C08F000F00CF013F00CFE
:1009C000F013F00CF013F00CF0130A30F40039239C
:1009D0000F3083163C05F10071087007BC003B081E
:1009E000F000F00CF013F00CF013F00CF013F00C1E
:1009F000F0130A30F40039230F3083163B05F10061
:100A000071087007BB003A08F000F00CF013F00C0E
:100A1000F013F00CF013F00CF0130A30F40039234B
:100A20000F3083163A05F1007108F0077008BA001C
:100A30000130D7000730D8000A30F400C22030302F
:100A400070078316D90052230130D7000830D80030
:100A50000A30F4003A08F000C2207808F000303084
:100A600070078316D90052230130D7000A30D8000E
:100A70000A30F4003B08F000C220303070078316C3
:100A8000D90052230130D7000B30D8000A30F400CF
:100A90003B08F000C2207808F00030307007831661
:100AA000D90052230130D7000D30D8000A30F400AD
:100AB0003C08F000C220303070078316D900522362
:100AC0000130D7000E30D8000A30F4003C08F000A6
:100AD000C2207808F000303070078316D900522306
:020AE00008000C
:100AE200831203137408003A031D802D7508003A1F
:100AF200031D802DFF30F0007F30F100D92D8312CD
:100B02000313FD01F901F80171087004031900349F
:100B120071087506FA00FA1BFD09FB01F51F962DF7
:100B2200F409F509F40A0319F50AF11F9D2DF009DC
:100B3200F109F00A0319F10A71087504FA00FA1BA7
:100B4200B22D33227B18C52DFD1F0034F009F109A7
:100B5200F00A0319F10AF809F909F80A0319F90A5E
:100B62000034F51FC12DF11BBD2D7108F90070086D
:100B7200F800F101F001A52DF101F001F00A0034B5
:100B8200F109F009FB0AA22DF80A0319F90A7408FF
:100B92007802031DA52D75087902031DA52DF90103
:100BA200F801F00A0319F10AF11FA52D0000FF3424
:020BB200080039
:100BB4006E227008D4000F3083120805F000031968
:0E0BC400E52D6622DD2D83165408F000080092
:100BD200FA2D831203130714242E83128714242E52
:100BE20083128716242E83120717242E8312871747
:100BF200242E0313003083165506031D022E0030E7
:100C020054060319EA2D00305506031D0A2E013041
:100C120054060319EE2D00305506031D122E023024
:100C220054060319F12D00305506031D1A2E033008
:100C320054060319F42D00305506031D222E0430EC
:0A0C420054060319F72D2E240800B4
:100C4C005F228A110A128000840AB80A0319B90AB1
:080C5C00F003031D262E080021
:100C640083160313071087100711871207138713BE
:100C740083120710C601121492147C30831692005A
:100C8400A622E8308316D70000231430831693007D
:100C940015214921982101308316EC001A200C30CB
:100CA4008316EC001A2001308316E7000130E800B7
:100CB4005930E9008120A221D001053050020318E7
:100CC400882E5008F000F00D7010F00D70107008B0
:100CD400A43E840080015008F000F00D7010F00D67
:100CE4007010A430F007700A840080015008F000EE
:100CF400F00D7010F00D7010A430F0070230700782
:100D040084008001840A8001D00A5F2E83120710B8
:0C0D1400871087120713871307110800CF
:0E0D2000831603130715F030831297050800A1
:100D2E0083120313450803196F2F4B2F8030F000E9
:100D3E008030831655067002031DA72E5408023C00
:100D4E000318AB2ED401D50183122B08F000F00D41
:100D5E007010F00D7010A430F007700A8400831626
:100D6E00540880000230D7000930D80030305407C4
:100D7E00D90052235C2F83122B08F000F00D701057
:100D8E00F00D7010A430F007700A84000008023ACB
:100D9E00031DDF2E8030F000803083165506700262
:100DAE00031DDB2E5408033C0318DF2ED401D5019E
:100DBE0083122B08F000F00D7010F00D7010A4309F
:100DCE00F007700A8316D600560884000008F0005B
:100DDE000A30F400392383165408F00756088400AD
:100DEE00700880000230D7000A30D8003030540727
:100DFE00D90052231430EC001A205C2F8030F00002
:100E0E008030831655067002031D0F2F5408053CC3
:100E1E000318132FD401D50183122B08F000F00D07
:100E2E007010F00D70107008A43E840083165408E4
:100E3E0080000230D7000C30D80030305407D90073
:100E4E0052235C2F83122B08F000F00D7010F00D62
:100E5E0070107008A43E8316D60056088400000851
:100E6E00F0000A30F400392383165408F0075608B0
:100E7E008400700880000230D7000D30D80030306A
:100E8E005407D90052235C2F83124408003A0319E9
:100E9E009D2E4408013A0319C22E4408023A031942
:100EAE00052F4408033A0319292F8312C40A440854
:100EBE00043A031D6F2FC401C50101308316E700EC
:100ECE000130E8003530E90081200C30EC001A20AA
:020EDE0008000A
:100F8400223084004C3083120313F0007030831637
:100F9400B8000730B9002626A030840004300313BB
:100FA400F000BC308316B8000730B90026266E3036
:100FB400840002300313F000C0308316B8000730F9
:060FC400B900262608001A
:101000008A11C2278A158A1132268A158312450849
:10101000031D0D288A11B8248A158316D0010530C6
:101020005002031855285008F000F00D7010F00D14
:101030007010A430F0070230700784000008F1003F
:10104000840A0008F20000307206031D29280130CE
:101050007106031D52285008F000F00D7010F00DBD
:101060007010A430F007700A840000083A06031DCF
:1010700052285008F000F00D7010F00D701070083C
:10108000A43E84000008F10071083B06031D5228AD
:1010900005303C02031852285008D400D5018A11AB
:1010A000E9258A158316D00A0F288312C6018A11F2
:1010B000DA258A1570088312C60033290730831693
:1010C000D4000030D5008A1197268A157029043083
:1010D0008316D4000030D5008A1197268A1570290E
:1010E00001308316D4000030D5008A1197268A1566
:1010F000702908308316D4000030D5008A11972655
:101100008A15702905308316D4000030D5008A1165
:1011100097268A15702902308316D4000030D50036
:101120008A1197268A1570298316D401D5018A1150
:1011300097268A15702909308316D4000030D5000F
:101140008A1197268A15702906308316D40000303C
:10115000D5008A1197268A15702903308316D4008A
:101160000030D5008A1197268A1570294508031D7D
:10117000D6282B08F000F00D7010F00D7010A43080
:10118000F00702307007F100710884000008840A3B
:1011900000040130031D0030F00071088400700865
:1011A0008000840A80018A11A2218A157029831285
:1011B0004508031DFF280130C50001308316E700F4
:1011C0000130E8004730E9008A1181208A15023099
:1011D000E7000930E8006830E9008A1181208A15AB
:1011E0000F30EC008A111A208A1502308316E700AE
:1011F0000830E8006E30E9008A1181208A157029D4
:101200008312071087108712071387138A119026FD
:101210008A1570294508031D1729AB032B08FF3ACF
:10122000031D14290430AB008A11A2218A157029EC
:1012300083124508031D32292B08013EF000F101FD
:101240000318F10A0530F4000030F5008A11712509
:101250008A157808F0007908F1007008AB008A114F
:10126000A2218A15702983124608013A03195E28C3
:101270004608023A031967284608033A03197028FA
:101280004608053A031979284608063A03198228C0
:101290004608073A03198B284608083A0319942888
:1012A0004608093A03199B2846080A3A0319A42854
:1012B00046080B3A0319AD284608043A0319B62824
:1012C00046080D3A0319D72846080E3A0319002993
:1012D00046080F3A03190A294608103A0319182933
:0412E0000628712942
:100EE00020344134633474346934763465342034C6
:020EF0000034CC
:020EF2000034CA
:100EF40049346E346134633474346934763465341B
:020F04000034B7
:100F0600543469346D3465343A3420342034203412
:0E0F16003A34203420343A342034203400346D
:020F2400003497
:020F2600003495
:020F2800003493
:100F2A002034203420342034453464346934743411
:100F3A0020344D346F346434653420342034203402
:040F4A00203400341B
:100F4E00543469346D3465343A34203420342034CA
:0E0F5E003A34203420343A3420342034003425
:0C0F6C00203420343A3420342034003487
:080F78000034003400340034A1
:040F800020340034E5
:02400E007A3BFB
:00000001FF
