:02000000422993
:0E000600213083120313FD00FD0B07280800B4
:100014000F3083120313FC004730FD00FD0B102842
:0A002400FC0B10280000000008008B
:06002E00000000000800C4
:1000340083120313C91B2028861121288615491B06
:100044002528061126280615C91A2A2886102B28C1
:100054008614491A2F280610302806143818342814
:10006400061635280612861617208612C9193C284A
:1000740086113D288615491941280611422806157E
:10008400C918462886104728861449184B28061094
:100094004C280614381850280616512806128616BD
:1000A40017208612381C58280A20592803200800D3
:1000B4008312031338104808C9001A2038140800A2
:0E00C400831203133D088A003C0882000800E6
:1000D200803083120313F0007008083E8400FF3062
:0400E2008000080092
:1000E6008316031386120612061086100611861151
:1000F60083128612061286110611861006100A2031
:100106000A200A20861406148616172086120A204C
:100116008616172086120A208616172086120A20AF
:1001260006108616172086120A20861617208612B3
:10013600861086158616172086120A208611061442
:1001460086161720861206108616172086120A2093
:1001560086161720861206148616172086120A207F
:10016600061086161720861286150615861406149E
:0C0176008616172086120A203814080094
:10018200D328803083120313C400E628C030C40091
:10019200E6289430C400E628D430C400E628803033
:1001A200C400E628831203134408013A0319C22843
:1001B2004408023A0319C7284408033A0319CA2813
:1001C2004408043A0319CD28D0284503F000440816
:1001D200F0077008C4007008C9001A203810C7015F
:1001E20047084607840000080319FF284708460706
:1001F20084000008C8005A20C70AF12838140800F1
:10020200FF3083120313C100FF30C2000030C3006D
:100212000030FF30BE00FF30BF000030C0000030B1
:10022200FF30B200FF30B3000030B4000030FF30C6
:10023200AF00FF30B000FF30B100FF30FF30B5003B
:10024200FF30B600FF30B700FF30FF30B900FF309B
:10025200BA000030BB000030831614139413071643
:0A026200871538308312940008005D
:10026C0062208A110A128000840ABC0A0319BD0A92
:08027C00F003031D3629080000
:10028400543083120313A0006930A1006D30A20022
:100294006530A3003A30A4002030A5002030A60029
:1002A4002030A7003A30A8002030A9002030AA004E
:1002B4003A30AB002030AC002030AD00AE018B17DB
:1002C4008B160730831681000630831281001430A8
:1002D400831693000121732069200130C9001A207C
:1002E4000C30C9001A200130C4000130C500203090
:0802F400C600C1207C297D2910
:02400E007A3BFB
:00000001FF
