:02000000FC2BD7
:06000600000000000800EC
:0E000C00213083120313FD00FD0B0A280800AB
:10001A000F3083120313FC004730FD00FD0B132839
:0A002A00FC0B132800000000080082
:1000340083160313B41B21288312861123288312E9
:1000440086158316341B2928831206112B28831244
:1000540006158316B41A31288312861033288312A6
:1000640086148316341A3928831206103B28831207
:10007400061466183F280616402806128616032022
:1000840086128316B4194928831286114B288312C9
:1000940086158316341951288312061153288312A6
:1000A40006158316B4185928831286105B28831208
:1000B4008614831634186128831206106328831269
:1000C4000614661867280616682806128616032082
:0E00D4008612661C6F280D207028062008007A
:1000E20083120313661083163308B4001A206614B1
:0200F200080004
:1000F400063083120313FD00FD0B7E280000080068
:100104009428803083160313AE00A728C030AE00B5
:10011400A7289430AE00A728D430AE00A72880309A
:10012400AE00A728831603132E08013A0319832867
:100134002E08023A031988282E08033A03198B283B
:100144002E08043A03198E2891282F03F0002E0854
:10015400F0077008AE008312661470088316B400AA
:100164001A20661083163008B4001A20661408009A
:10017400CC28803083160313AE00DF28C030AE00D5
:10018400DF289430AE00DF28D430AE00DF28803082
:10019400AE00DF28831603132E08013A0319BB2887
:1001A4002E08023A0319C0282E08033A0319C3285B
:1001B4002E08043A0319C628C9282F03F0002E0874
:1001C400F0077008AE007008B4001A206610831699
:1001D400B10131083007840000080319FA283108F6
:1001E400300784000008B30071208316B10AEB289D
:0601F400831266140800EE
:1001FA0083160313AE01B001B1011030B20004300E
:10020A00310203183229F030831288008030F0005E
:10021A007008083E840083163209F00070088000D6
:10022A00032003200F3083120805F000700883169C
:10023A00AF00700803192C293008AE002F080319E3
:10024A002A29AF0CAF13AE0A23290430B100B20D2C
:10025A0032100430B007B10A04292E08F000080051
:0E026A00831203135C088A005B088200080000
:10027800710DF80DF90D7408F8027508031C750F57
:10028800F902F00DF10D0F30FC00710DF80DF90DAC
:100298007408701C5529F8027508031C750FF902BB
:1002A8005A29F80775080318750FF907F00DF10DAD
:1002B800FC0B4929701866297408F8077508031893
:0802C800750FF90700000800A2
:1002D000831203137008F100F0010830FC0071086C
:1002E000F40C03187729FC0B7029F101003403107A
:1002F0007C29F40C0318F107F10CF00CFC0B7929A4
:020300000800F3
:10030200831203137408003A031D90297508003AFA
:10031200031D9029FF30F0007F30F100E92983129C
:100322000313FD01F901F801710870040319003487
:1003320071087506FA00FA1BFD09FB01F51FA629D3
:10034200F409F509F40A0319F50AF11FAD29F009B8
:10035200F109F00A0319F10A71087504FA00FA1B8F
:10036200C2293C217B18D529FD1F0034F009F1096F
:10037200F00A0319F10AF809F909F80A0319F90A46
:100382000034F51FD129F11BCD297108F90070083D
:10039200F800F101F001B529F101F001F00A003491
:1003A200F109F009FB0AB229F80A0319F90A7408DB
:1003B2007802031DB52975087902031DB529F901D3
:1003C200F801F00A0319F10AF11FB5290000FF3400
:0203D200080021
:1003D400FD207008A0000F3083120805F0000319F7
:0E03E400F5297A20ED2983162008F000080084
:1003F200413083160313A0006C30A1006130A200CB
:100402007230A3006D30A4002030A5002030A60079
:100412002030A7002030A8002030A9003A30AA00DE
:100422002030AB002030AC00AD0131308312200708
:100432008316A60083122008F000F00D7010F00D54
:1004420070107008473EF300730AF20072088400CD
:100452000008F10071088316A800A80CA813A80CC4
:10046200A813A80CA813A80CA8133030A807720868
:1004720084000F300005A9003030A90773088400FA
:100482000008F1007108AB00AB0CAB13AB0CAB1363
:10049200AB0CAB13AB0CAB133030AB07730884005F
:1004A2000008F0000F307005AC003030AC070230AD
:1004B200AE000130AF00A030B000BA202008F0003A
:1004C200F00D7010F00D70104730F0070230700719
:1004D20084000008F100840A0008F200003072066D
:1004E200031D752A01307106031D802A033083160D
:1004F200AE000130AF002B30B000BA20882A0330A2
:100502008316AE000130AF002230B000BA200800DE
:1005120083120313F301F40180307406F00080307B
:100522007002031D962A053073020318CE2A73083F
:10053200F0007408F100F00DF10D7010F00DF10DE6
:1005420070107008473E8400730880007308F00042
:100552007408F100F00DF10D7010F00DF10D701036
:100562004730F007700A840080017308F0007408B5
:10057200F100F00DF10D7010F00DF10D701047301B
:10058200F007023070078400013080000030840AD6
:0C0592008000F30A0319F40A8D2A080007
:10059E00803083120313F0007008083E8400FF3091
:0405AE0080000800C1
:1005B2008316031386120612061086100611861180
:1005C20083128612061286110611861006100D205D
:1005D2000D200D20861406148616032086120D2087
:1005E2008616032086120D208616032086120D2001
:1005F20006108616032086120D2086160320861208
:10060200861086158616032086120D208611061482
:1006120086160320861206108616032086120D20E7
:1006220086160320861206148616032086120D20D3
:1006320006108616032086128615061586140614E1
:0C0642008616032086120D2066140800A6
:10064E00FF3083120313ED00FF30EE000030EF0099
:10065E000030FF30E300FF30E4000030E5000030F2
:10066E00FF30E000FF30E1000030E2000030FF30EC
:10067E00DD00FF30DE00FF30DF00FF30FF30EA002C
:10068E00FF30EB00FF30EC00FF30FF30E700FF30B3
:10069E00E8000030E9000030831614139413071697
:0A06AE00871538308312940008000D
:1006B8008312031321080319EF2BD42B2008F00011
:1006C800F00D7010F00D70104730F007700A8400BC
:1006D8008316200880000230AE000930AF003030A9
:1006E8002007B0008220E42B2008F000F00D7010E5
:1006F800F00D70104730F007700A8316A200220828
:1007080084000008F0000A30F400682183162008ED
:10071800F00722088400700880000230AE000A301A
:10072800AF0030302007B0008220E42B2008F00012
:10073800F00D7010F00D70107008473E840083169D
:10074800200880000230AE000C30AF0030302007A7
:10075800B000822014308316B4001A20E42B20083D
:10076800F000F00D7010F00D70107008473E831601
:10077800A200220884000008F0000A30F400682172
:1007880083162008F00722088400700880000230D1
:10079800AE000D30AF0030302007B0008220E42BCF
:1007A8003208003A0319622B3208013A0319782BF0
:1007B8003208023A03199A2B3208033A0319B32B69
:1007C800B20A3208043A031DEF2BB201A1010C3022
:0807D8008316B4001A2008008A
:1007E00035218A110A128000840ADB0A0319DC0A07
:0807F000F003031DF02B0800CB
:1007F8004E2583120313C301143083169300272355
:10080800D922CF2201308316B4001A200C30831667
:10081800B4001A2001308316AE000130AF00343026
:10082800B000BA208922F921C301EA217008831295
:10083800C30070080319192CE32C0730B3000730E4
:100848008316A000A1015C231F2D0430B3000430DF
:100858008316A000A1015C231F2D0130B3000130D5
:100868008316A000A1015C231F2D0830B3000830B7
:100878008316A000A1015C231F2D0530B3000530AD
:100888008316A000A1015C231F2D0230B3000230A3
:100898008316A000A1015C231F2DB3018316A001BC
:1008A800A1015C231F2D0930B30009308316A00075
:1008B800A1015C231F2D0630B30006308316A0006B
:1008C800A1015C231F2D0330B30003308316A00061
:1008D800A1015C231F2D2008F000F00D7010F00D11
:1008E80070104730F0070230700784000008F100EC
:1008F800840A0008F20000307206031D852C0130BE
:100908007106031D962C2008F000F00D7010F00DF4
:1009180070104730F0070230700784008001840AA5
:100928008001A62C2008F000F00D7010F00D70105A
:100938004730F00702307007840001308000003033
:10094800840A8000F9211F2D21080319B22CA10166
:10095800B2010C308316B4001A20C02C0130A1005B
:100968000F308316B4001A2002308316AE00083008
:10097800AF004530B000BA201F2DC4011F2DA003C1
:100988002008FF3A031DCA2C0430A000F9211F2DAE
:100998002008013EF000F1010318F10A0030A01B05
:1009A800FF30F1070530F4000030F50081217808A8
:1009B800F0007908F1007008A000F9211F2D430804
:1009C800013A0319212C4308023A0319292C430838
:1009D800033A0319312C4308053A0319392C430803
:1009E800063A0319412C4308073A0319492C4308CE
:1009F800083A0319512C4308093A0319572C43089C
:100A08000A3A03195F2C43080B3A0319672C430869
:100A1800043A03196F2C43080D3A0319A82C43080C
:100A28000E3A0319C12C43080F3A0319C32C430883
:0A0A3800103A0319CC2C182C202DC5
:100A9C0020308400273083120313F0002630DB0053
:080AAC000530DC00F023080016
:020A4C00003474
:020A4E00003472
:100A500049346E34613463347434693476346534C3
:020A6000003460
:0E0A62004134633474346934763465340034BE
:020A7000003450
:020A720000344E
:100A7400543469346D3465343A34203420342034A9
:0E0A84003A34203420343A3420342034003404
:020A920000342E
:020A940000342C
:040A960020340034D4
:02400E007A3BFB
:00000001FF
